:020000020000FC
:20000000004000B408408C140800683A00000000000000000000000000000000000000005A
:20000800DEFFED04DFC00015D8400215D8800315D8C00415D9000515D9400615D98007156A
:20001000D9C00815000B307ADA000915DA400A15DA800B15DAC00C15DB000D15DB400E15C4
:20001800DB800F15DBC01015D9401115EBFFFF04DBC012150009313A2880004C10000326FA
:200020002000022600200FC000000706DF401215E8BFFF17E93FFF0400201D001000021EE1
:20002800EBFFFF04DBC01215D9401117DF401217DFC000172801707AD8400217D880031714
:20003000D8C00417D9000517D9400617D9800717D9C00817DA000917DA400A17DA800B17F2
:20003800DAC00C17DB000D17DB400E17DB800F17DBC01017DEC01304EF80083ADEFFF90429
:20004000DFC00615DF000515DF0005040001883A0005313AE0BFFE15E0BFFE17E0BFFB15BD
:20004800E03FFD1500800044E0BFFC15E0FFFB17E0BFFC171884703A10001426008000B48C
:20005000109F8604E0FFFD17180690FA10C5883A10C00017008000B4109F8604E13FFD179D
:20005800200890FA1105883A10800104108000171009883A183EE83A0001883A0005313A3C
:20006000E0BFFF15E0BFFF1700000706E0BFFC171085883AE0BFFC15E0BFFD1710800044CB
:20006800E0BFFD15003FE106E0BFFB15E0BFFB17103FDB1E0001883A0001883AE037883A9A
:20007000DFC00117DF000017DEC00204F800283ADEFFFB04DFC00415DF000315DF00030454
:20007800E13FFF1500BFFFC4E0BFFD15E03FFE15D0A5D91710000726D0A5D917E0FFFD17D5
:20008000E1BFFE17E17FFF171809883A103EE83A00000206003DA03A0005883AE037883A23
:20008800DFC00117DF000017DEC00204F800283A06C000F4DECB0014068000B4D6B7A914B2
:20009000008000B4109D7B1400C000B418DFC61410C00326100000151080010410FFFD36A6
:200098000021FD4000220580003FFF06DEFFFD04DF000215DF000204E13FFE15E17FFF159F
:2000A000E0BFFE17E0FFFF1710C00015E0BFFE1710000115E0BFFE1700C0004410C0021539
:2000A800E0BFFE1700C0008410C00315E0BFFE1700C0010410C00415E0BFFE1700C000443E
:2000B00010C00515E0BFFE1700C0008410C00615E0BFFE1700C0010410C00715E0BFFE174A
:2000B80000C0080410C00815E0BFFE1700C0100410C00915E0BFFE1700C0200410C00A1572
:2000C000E0BFFE1700C0100410C00B15E0BFFE1700C0008410C00C15E0BFFE1700C0020445
:2000C80010C00D15E0BFFE1700C0004410C00E15E0BFFE1700C0008410C00F15E0BFFE17DB
:2000D00000C0030410C01015E0BFFE1700C0004410C01115E0BFFE1700C0008410C01215B7
:2000D800E0BFFE1700C0040410C01315E0BFFE1700C0080410C01415E0BFFE1700C0400463
:2000E00010C01515E0BFFE1700C0800410C01615E0BFFE1700C0380410C01715E0BFFE17B3
:2000E80000C0500410C018150001883AE037883ADF000017DEC00104F800283ADEFFFA047D
:2000F000DFC00115DF000015D839883AE1000215E1400315E1800415E1C00515E080021795
:2000F800E0C00317180B883A1009883A00213040E037883ADFC00117DF000017DEC00604AF
:20010000F800283ADEFFFA04DFC00115DF000015D839883AE1000215E1400315E180041583
:20010800E1C00515E0800217E0C00617E1801C17180B883A1009883A0021338000800044FA
:20011000E037883ADFC00117DF000017DEC00604F800283ADEFFFA04DFC00115DF000015C3
:20011800D839883AE1000215E1400315E1800415E1C00515E0800217E0C00617E100071759
:20012000200D883A180B883A1009883A0021240000800044E037883ADFC00117DF00001781
:20012800DEC00604F800283ADEFFFA04DFC00115DF000015D839883AE1000215E14003152D
:20013000E1800415E1C00515E0800217E0C00617E1000817200D883A180B883A1009883A95
:200138000021240000800044E037883ADFC00117DF000017DEC00604F800283ADEFFFA043B
:20014000DFC00115DF000015D839883AE1000215E1400315E1800415E1C00515E080021744
:20014800E0C00617E1000917200D883A180B883A1009883A0021240000800044E037883A48
:20015000DFC00117DF000017DEC00604F800283ADEFFFA04DFC00115DF000015D839883A89
:20015800E1000215E1400315E1800415E1C00515E0800217E0C00617000D883A180B883A37
:200160001009883A0021338000800044E037883ADFC00117DF000017DEC00604F800283A84
:20016800DEFFFA04DFC00115DF000015D839883AE1000215E1400315E1800415E1C00515BA
:20017000E0800217E0C00617E1000717200D883A180B883A1009883A00212A00008000447C
:20017800E037883ADFC00117DF000017DEC00604F800283ADEFFFA04DFC00115DF0000155B
:20018000D839883AE1000215E1400315E1800415E1C00515E0800217E0C00617E1000817F0
:20018800200D883A180B883A1009883A00212A0000800044E037883ADFC00117DF00001713
:20019000DEC00604F800283ADEFFFA04DFC00115DF000015D839883AE1000215E1400315C5
:20019800E1800415E1C00515E0800217E0C00617E1000917200D883A180B883A1009883A2C
:2001A00000212A0000800044E037883ADFC00117DF000017DEC00604F800283ADEFFF904CE
:2001A800DFC00215DF000115DF000104E1000215E1400315E1800415E1C00515E0801C17AF
:2001B000E0BFFF05E0FFFF03E0800B171880092EE1000217E0C00A17E0BFFF031085883AA7
:2001B8001085883A1885883A100B883A00213040000001060005883AE037883ADFC00117A5
:2001C000DF000017DEC00604F800283ADEFFF904DFC00215DF000115DF000104E1000215C6
:2001C800E1400315E1800415E1C00515E0801C17E0BFFF05E1000217E0C00A17E0BFFF0317
:2001D0001085883A1085883A1885883AE1801D17100B883A0021338000800044E037883A1F
:2001D800DFC00117DF000017DEC00604F800283ADEFFF904DFC00215DF000115DF000104EF
:2001E000E1000215E1400315E1800415E1C00515E0801C17E0BFFF05E1000217E0C00A17A8
:2001E800E0BFFF031085883A1085883A1885883A000D883A100B883A002133800080004405
:2001F000E037883ADFC00117DF000017DEC00604F800283ADEFFFA04DFC00115DF000015E3
:2001F800D839883AE1000215E1400315E1800415E1C00515E0800217E0C00F17180B883A8A
:200200001009883A00213040E037883ADFC00117DF000017DEC00604F800283ADEFFFA040F
:20020800DFC00115DF000015D839883AE1000215E1400315E1800415E1C00515E08002177B
:20021000E0C01217E1801C17180B883A1009883A0021338000800044E037883ADFC0011789
:20021800DF000017DEC00604F800283ADEFFFA04DFC00115DF000015D839883AE10002157F
:20022000E1400315E1800415E1C00515E0800217E0C01217000D883A180B883A1009883A7F
:200228000021338000800044E037883ADFC00117DF000017DEC00604F800283ADEFFF904BC
:20023000DFC00215DF000115DF000104E1000215E1400315E1800415E1C00515E0801C1726
:20023800E0BFFF05E0C00217E1001217E0BFFF03108004441085883A1085883AE1400204F2
:200240002885883A10800017100D883A200B883A1809883A0021240000800044E037883AF7
:20024800DFC00117DF000017DEC00604F800283ADEFFF904DFC00215DF000115DF0001047E
:20025000E1000215E1400315E1800415E1C00515E0801C17E0BFFF05E0C00217E10012172F
:20025800E0BFFF03108004C41085883A1085883AE14002042885883A10800017100D883AC3
:20026000200B883A1809883A0021240000800044E037883ADFC00117DF000017DEC0060477
:20026800F800283ADEFFF904DFC00215DF000115DF000104E1000215E1400315E180041508
:20027000E1C00515E0801C17E0BFFF05E0C00217E1001217E0BFFF03108005441085883AE9
:200278001085883AE14002042885883A10800017100D883A200B883A1809883A00212400DE
:2002800000800044E037883ADFC00117DF000017DEC00604F800283ADEFFF904DFC0021582
:20028800DF000115DF000104E1000215E1400315E1800415E1C00515E0801C17E0BFFF05E1
:20029000E0C00217E1001217E0BFFF03108004441085883A1085883AE14002042885883ACE
:2002980010800017100D883A200B883A1809883A00212A0000800044E037883ADFC0011751
:2002A000DF000017DEC00604F800283ADEFFF904DFC00215DF000115DF000104E1000215E5
:2002A800E1400315E1800415E1C00515E0801C17E0BFFF05E0C00217E1001217E0BFFF032E
:2002B000108004C41085883A1085883AE14002042885883A10800017100D883A200B883A1F
:2002B8001809883A00212A0000800044E037883ADFC00117DF000017DEC00604F800283AAC
:2002C000DEFFF904DFC00215DF000115DF000104E1000215E1400315E1800415E1C005154F
:2002C800E0801C17E0BFFF05E0C00217E1001217E0BFFF03108005441085883A1085883AF5
:2002D000E14002042885883A10800017100D883A200B883A1809883A00212A000080004413
:2002D800E037883ADFC00117DF000017DEC00604F800283ADEFFF804DFC00315DF000215F8
:2002E000DF000204E1000215E1400315E1800415E1C00515E0C01C17E0801D17E0FFFE056A
:2002E800E0BFFF0DE0C00217E0BFFE03108005C41085883A1085883AE10002042085883A9D
:2002F00010800017E13FFF0BE1C01E17200D883A100B883A1809883A002137C000800044BC
:2002F800E037883ADFC00117DF000017DEC00604F800283ADEFFF804DFC00315DF000215D8
:20030000DF000204E1000215E1400315E1800415E1C00515E0C01C17E0801D17E0FFFE0549
:20030800E0BFFF0DE0C00217E0BFFE03108005C41085883A1085883AE10002042085883A7C
:2003100010800017E13FFF0BE1C01E17200D883A100B883A1809883A00213DC00080004495
:20031800E037883ADFC00117DF000017DEC00604F800283ADEFFF804DFC00315DF000215B7
:20032000DF000204E1000215E1400315E1800415E1C00515E0C01C17E0801D17E0FFFE0529
:20032800E0BFFF0DE0C00217E0BFFE03108005C41085883A1085883AE10002042085883A5C
:2003300010800017E13FFF0BE1C01E17200D883A100B883A1809883A00214400008000442E
:20033800E037883ADFC00117DF000017DEC00604F800283ADEFFC304DFC03C15DF003B155A
:20034000DF003B04E0BFE60401400134294400041009883A002026C0E03FDC05E03FDF45EB
:20034800E03FDC45E03FDD15E03FE015E03FE115E03FE215E03FDE15E03FE315E03FE415C4
:20035000E03FDF05D8000015E1FFE517018000B431859904000B883A0009883A0021C9C0F7
:20035800000B883A0009883A0021CEC0D809883AE0BFEA0400C01604180D883A100B883A70
:200360000021B540E13FE617E17FE717E1BFE817E1FFE91700203BC0E0BFE315E0FFE817DD
:20036800E0BFE3171886703AE0BFE81718801B26E03FE415E03FDC05E03FDF45E03FDC4582
:20037000E03FDD15E03FE015E03FE115E03FE215E03FDE15E03FDF05D809883AE0BFEA04D8
:2003780000C01604180D883A100B883A0021B540E13FE617E17FE717E1BFE817E1FFE917B7
:2003800000204540018001C4000B883A010001342105080400213380003FD406E0FFE91771
:20038800E0BFE3171886703AE0BFE9171880DD1ED809883AE0BFEA0400C01604180D883A51
:20039000100B883A0021B540E13FE617E17FE717E1BFE817E1FFE91700204A80E0BFDF03F5
:200398001080005C10803FCC10004126D8001615D809883AE0BFEA0400C01604180D883A53
:2003A000100B883A0021B540E13FE617E17FE717E1BFE817E1FFE917002069C0E0BFE11572
:2003A80000800044D8801615D809883AE0BFEA0400C01604180D883A100B883A0021B5400A
:2003B000E13FE617E17FE717E1BFE817E1FFE917002069C0E0BFE21500800084D8801615CD
:2003B800D809883AE0BFEA0400C01604180D883A100B883A0021B540E13FE617E17FE717C6
:2003C000E1BFE817E1FFE917002069C0E0BFDE1501811E34319A3004E17FE117010500048E
:2003C80000215D4000800044E0BFDF05D809883AE0BFEA0400C01604180D883A100B883A42
:2003D0000021B540E13FE617E17FE717E1BFE817E1FFE91700204FC001800084000B883AFC
:2003D800010001342105080400213380003F7F06D809883AE0BFEA0400C01604180D883A14
:2003E000100B883A0021B540E13FE617E17FE717E1BFE817E1FFE91700207D40E0BFE4159B
:2003E800E0FFF417E0BFE4171886703AE0BFF41718BF6E1ED8001615D809883AE0BFEA04E9
:2003F00000C01604180D883A100B883A0021B540E13FE617E17FE717E1BFE817E1FFE9173F
:2003F80000208BC000217C4010803FCC103F5F1EE0BFDC03E0BFDF4500218000E0BFDC05D4
:20040000E0BFDD1710800044E0BFDD15E0BFDF43108008181000071EE0BFDC031080101808
:200408001000041E00800044E0BFDD15E0BFDE17E0BFDC45E0BFDD170080180EE0BFDD172D
:20041000108007881000151EE0FFDC43E0BFDC031885C83AE0BFDC45E0BFDD1710800090DC
:2004180010000E1EE0BFDD171080058810000B1EE0BFDD1710BFFF84E0BFE015E0FFFD1733
:20042000E0BFE0171887883AE0BFE6171885883A1007883AE0BFDC0318800025E0BFDD1723
:2004280010800798103F311EE0FFDC43E0BFDC0318801E1ED8001615D809883AE0BFEA0464
:2004300000C01604180D883A100B883A0021B540E13FE617E17FE717E1BFE817E1FFE917FE
:2004380000209A40D8001615D809883AE0BFEA0400C01604180D883A100B883A0021B540C3
:20044000E13FE617E17FE717E1BFE817E1FFE9170020930001800144000B883A0100013426
:200448002105080400213380003F1006D8001615D809883AE0BFEA0400C01604180D883A45
:20045000100B883A0021B540E13FE617E17FE717E1BFE817E1FFE9170020B000D8001615CC
:20045800D809883AE0BFEA0400C01604180D883A100B883A0021B540E13FE617E17FE71725
:20046000E1BFE817E1FFE91700209300018000C4000B883A010001342105080400213380FC
:20046800003EF206D809883AE0BFEA0400C01604180D883A100B883A0021B540E13FE6173D
:20047000E17FE717E1BFE817E1FFE91700205F4001800104000B883A010001342105080415
:2004780000213380003EE106DEFFFC04DF000315DF000304E13FFD15E17FFE15E1BFFF1558
:20048000E0FFFE17E0BFFD171885883A108000371007883AE0BFFF171886703AE0BFFF1704
:200488001880021E00800044000001060005883AE037883ADF000017DEC00104F800283A3E
:20049000DEFFFB04DF000415DF000404E13FFD15E17FFE15E1BFFF15E0FFFE17E0BFFD1791
:200498001885883A10800037E0BFFC15E0FFFE17E0BFFD171885883A1009883AE0FFFC179B
:2004A000E0BFFF171884B03A208000350001883AE037883ADF000017DEC00104F800283A9D
:2004A800DEFFFB04DF000415DF000404E13FFD15E17FFE15E1BFFF15E0FFFE17E0BFFD1779
:2004B0001885883A10800037E0BFFC15E0FFFE17E0BFFD171885883A1009883AE0BFFF17C0
:2004B8000086303AE0BFFC171884703A208000350001883AE037883ADF000017DEC0010432
:2004C000F800283ADEFFFD04DF000215DF000204E13FFE15E17FFF15E0FFFF17E0BFFE17B9
:2004C8001885883A10800037E037883ADF000017DEC00104F800283ADEFFFC04DF0003154E
:2004D000DF000304E13FFD15E17FFE15E1BFFF15E0FFFE17E0BFFD171885883A1007883AEE
:2004D800E0BFFF17188000350001883AE037883ADF000017DEC00104F800283ADEFFFA0418
:2004E000DFC00515DF000415DF000404E13FFC15E17FFD153005883AE1FFFF15E0BFFE0D2C
:2004E800E0FFFD17E0BFFC171885883A1007883AE0BFFE0B100D883AE17FFF171809883A37
:2004F0000021B5400001883AE037883ADFC00117DF000017DEC00204F800283ADEFFFA04B4
:2004F800DFC00515DF000415DF000404E13FFC15E17FFD153005883AE1FFFF15E0BFFE0D14
:20050000E0FFFD17E0BFFC171885883A1007883AE0BFFE0B1085883A100D883AE17FFF17AA
:200508001809883A0021B5400001883AE037883ADFC00117DF000017DEC00204F800283A93
:20051000DEFFFA04DFC00515DF000415DF000404E13FFC15E17FFD153005883AE1FFFF15CA
:20051800E0BFFE0DE0FFFD17E0BFFC171885883A1007883AE0BFFE0B1085883A1085883AE6
:20052000100D883AE17FFF171809883A0021B5400001883AE037883ADFC00117DF00001724
:20052800DEC00204F800283ADEFFFA04DFC00515DF000415DF000404E13FFC15E17FFD159F
:200530003005883AE1FFFF15E0BFFE0DE0FFFD17E0BFFC171885883A1007883AE0BFFE0B91
:20053800100D883A180B883AE13FFF170021B5400001883AE037883ADFC00117DF0000174A
:20054000DEC00204F800283ADEFFFA04DFC00515DF000415DF000404E13FFC15E17FFD1587
:200548003005883AE1FFFF15E0BFFE0DE0FFFD17E0BFFC171885883A1007883AE0BFFE0B79
:200550001085883A100D883A180B883AE13FFF170021B5400001883AE037883ADFC00117D1
:20055800DF000017DEC00204F800283ADEFFFA04DFC00515DF000415DF000404E13FFC15EB
:20056000E17FFD153005883AE1FFFF15E0BFFE0DE0FFFD17E0BFFC171885883A1007883A97
:20056800E0BFFE0B1085883A1085883A100D883A180B883AE13FFF170021B5400001883A4A
:20057000E037883ADFC00117DF000017DEC00204F800283ADEFFFA04DFC00515DF0004155B
:20057800DF000404E13FFD15E17FFE15E1BFFF15008000B4109D7D04E0FFFD1710C00015E9
:20058000E17FFE17E13FFF170021A98010800044E0BFFC15008000B4109D7D0410800017D9
:20058800108004041007883AE0BFFC1718800035008000B4109D7D041080001710800304C3
:200590001007883A00802004188000350001883AE037883ADFC00117DF000017DEC0020414
:20059800F800283ADEFFFC04DF000315DF000304E13FFE15E17FFF15008000B4109D7D0426
:2005A000108000171080020410800037E0BFFD15E0BFFD171080200C10001926D0A5D30B75
:2005A80010FFFFCC008000B4109D7D0410800017108000371009883A008000B4109D860443
:2005B00010C5883A11000005008000B4109D7D0410800017108002040007883A10C0003511
:2005B800D0A5D30B10800044D0A5D30DD0A5D30B10BFFFCC108100301000011ED025D30DF5
:2005C000E0BFFD171080100C10002926008000B4109D7D04108000171080030410800037F6
:2005C8001080100C10002226D0E5D28BD0A5D20B18FFFFCC10BFFFCC18801626008000B427
:2005D000109D7D0410800017108001041009883AD0A5D28B10FFFFCC008000B4109E8604AE
:2005D80010C5883A1080000310803FCC20800035D0A5D28B10800044D0A5D28DD0A5D28B1D
:2005E00010BFFFCC108100301000091ED025D28D00000706008000B4109D7D0410800017FF
:2005E800108003041007883A00802004188000350001883AE037883ADF000017DEC00104DD
:2005F000F800283ADEFFFF04DF000015D839883AD0E5D30BD0A5D38B18FFFFCC10BFFFCC08
:2005F8001880021E00800044000001060005883AE037883ADF000017DEC00104F800283ACD
:20060000DEFFFE04DF000115DF000104D0A5D38B10FFFFCC008000B4109D860410C5883A73
:2006080010800003E0BFFF05D0A5D38B10800044D0A5D38DD0A5D38B10BFFFCC10810030F2
:200610001000011ED025D38DE0BFFF03E037883ADF000017DEC00104F800283ADEFFFC04FC
:20061800DF000315DF0003042005883AE0BFFF05008000B4109D7D041080001710800204BC
:20062000108000371080100CE0BFFE15D0E5D20BD0A5D28B18FFFFCC10BFFFCC18800A1EF5
:20062800E0BFFE1710000826008000B4109D7D0410800017108001041007883AE0BFFF03A8
:200630001880003500003106D0E5D20BD0A5D28B18FFFFCC10BFFFCC18800536D0E5D20B61
:20063800D0A5D28B1885C83AE0BFFD0D00000506D0E5D20BD0A5D28B1885C83A1080FFC427
:20064000E0BFFD0DE0BFFD0B1080FFB01000021E00BFFFC400001E06D0A5D20B10FFFFCC09
:20064800008000B4109E860410C5883AE0FFFF0310C00005D0A5D20B10800044D0A5D20D5F
:20065000D0A5D20B10BFFFCC108100301000011ED025D20D008000B4109D7D0410800017D1
:20065800108003041080003710801014E0BFFE15008000B4109D7D0410800017108003041E
:200660001007883AE0BFFE171880003500800044E037883ADF000017DEC00104F800283A90
:2006680020001B16000F883A28001616200D883A29001A2E0080080400C000440000010605
:2006700010000D26294B883A10BFFFC418C7883A293FFB360005883A180007260005883A52
:2006780031400236314DC83A10C4B03A1806D07A280AD07A183FFA1E380001260085C83A42
:20068000F800283A014BC83A39C0005C003FE7060109C83A01C00044003FE30600C00044F4
:20068800003FEE0620001716000F883A2005883A280012162900162E0180080400C00044CC
:200690000000010630000A26294B883A31BFFFC418C7883A293FFB36180005261806D07A15
:20069800114001361145C83A280AD07A183FFB1E380001260085C83AF800283A014BC83AE8
:2006A000003FEC060109C83A01C00044003FE70600C00044003FF106200D883A2900152E37
:2006A800280014160080080400C000440000020610000E2628000516294B883A10BFFFC4F9
:2006B00018C7883A293FFA36180008260005883A31400236314DC83A10C4B03A1806D07A95
:2006B800280AD07A183FFA1EF800283A0005883AF800283A00C00044003FF4062005883A98
:2006C0002900122E280011160180080400C000440000020630000C2628000516294B883AEE
:2006C80031BFFFC418C7883A293FFA36180006261806D07A114001361145C83A280AD07A1E
:2006D000183FFB1EF800283AF800283A00C00044003FF706DEFFFD04DFC00215DC400115E0
:2006D800DC00001500C003C42005883A1980452E2906B03A18C000CC1800441E347FFC04AD
:2006E0008822D13A28C00104234001048820913A2B00020422C00204840005042A80030426
:2006E800224003042C21883A2811883A200F883A410000171FC0001763C0001739000015B8
:2006F000538000176FC000155BC000154B80001518C0040439C00404420004046B400404CE
:2006F800630004045AC00404528004044A4004041C3FEF1E89C00044380E913A310003CCE3
:2007000002C000C411C7883A29CB883A5900212E1813883A2811883A200F883A42800017A9
:200708004A40010439FFFF044ABFFF154200010459FFFA36213FFF042008D0BA318000CC89
:20071000210000442109883A2109883A1907883A290B883A30000626198D883A29C0000304
:2007180018C000442940004419FFFFC519BFFB1EDFC00217DC400117DC000017DEC00304A7
:20072000F800283A2007883A003FF2062007883A003FF106200D883A003FEE06DEFFF90424
:20072800DFC00615DF000515DF000504E13FFC15E17FFD15E1BFFE15E1FFFF15E080021753
:20073000D8800015E1FFFF17E1BFFE17E17FFD17E13FFC170021E7C0E037883ADFC0011792
:20073800DF000017DEC00204F800283ADEFFF904DF000615DF000604E13FFE15E17FFF1549
:20074000E0BFFF17E0BFFA150005303AE0BFFB15E0FFFB1700BFFF841884703A1001703AE4
:20074800E0BFFB17E0BFFC1500C00044E0BFFA171884983A1007883A008000B4109D7E04D2
:20075000108000171886B03A008000B4109D7E0410C00015008000B4109D7E041080001708
:20075800100170FAE0BFFC17E0BFFD15E0BFFD171001703A0005883A0001883AE037883AD2
:20076000DF000017DEC00104F800283ADEFFF904DF000615DF000604E13FFE15E17FFF1522
:20076800E0BFFF17E0BFFA150005303AE0BFFB15E0FFFB1700BFFF841884703A1001703ABC
:20077000E0BFFB17E0BFFC1500C00044E0BFFA171884983A0084303A1007883A008000B4EB
:20077800109D7E04108000171886703A008000B4109D7E0410C00015008000B4109D7E0498
:2007800010800017100170FAE0BFFC17E0BFFD15E0BFFD171001703A0005883A0001883ADC
:20078800E037883ADF000017DEC00104F800283ADEFFFC04DF000315DF000304E13FFE1598
:20079000E17FFF15000530FAE0BFFD1500C00044E0BFFF171884983A1007883AE0BFFD1742
:200798001884703A1004C03A10803FCCE037883ADF000017DEC00104F800283ADEFFF504B0
:2007A000DFC00A15DF000915DF000904E13FFC15E17FFD15E1BFFE15E1FFFF1500BFFA840B
:2007A800E0BFF715E0BFFD17E0BFF815E0BFF817108008081000271E0005303AE0BFFB1566
:2007B000E0FFFB1700BFFF841884703A1001703AE0BFFB17E0BFFA15008000B4109F860429
:2007B800E0FFF817180690FA10C5883AE0FFFE1710C00015008000B4109F8604E0FFF817C0
:2007C000180690FA10C5883A10800104E0FFFF1710C00015E0BFFE1710000526E0BFF817CE
:2007C800100B883AE13FFC170021CEC000000406E0BFF817100B883AE13FFC170021D8C0D1
:2007D000E0BFF715E0BFFA17E0BFF915E0BFF9171001703AE0BFF717E037883ADFC001175A
:2007D800DF000017DEC00204F800283ADEFFFC04DF000315DF000304E13FFD15E17FFE15AE
:2007E000E1BFFF15E0FFFE17E0BFFD1718800C2600000806E0BFFE1710C00104E0FFFE154B
:2007E800E0FFFD1719000104E13FFD1518C0001710C00015E0FFFE17E0BFFF1718BFF51E47
:2007F0000001883AE037883ADF000017DEC00104F800283ADEFFFE04DFC00115DF000015D2
:2007F800D839883A018000B43197B404014000B42951ED04010000B42117B4040021F6C07D
:20080000018000B431808C04014000B429400804010000B4210008040021F6C0018000B40A
:200808003191ED04014000B42951DA04010000B42111DA040021F6C00023790000239900DC
:200810000001883AE037883ADFC00117DF000017DEC00204F800283ADEFFFD04DFC00215ED
:20081800DF000115DF0001040009883A002210C00001883A00221440018000B43191DA041C
:20082000014000B42951DA04010000B42111DA040023B30000238D00010000B4210E4C04EC
:2008280000243140D0A5D617D0E5D717D125D817200D883A180B883A1009883A0020CF4053
:20083000E0BFFF150100004400236B80E13FFF1700243280DEFFFD04DFC00215DF0001150D
:20083800DF000104E13FFF15014000B42957AC04E13FFF17002382C0E037883ADFC0011738
:20084000DF000017DEC00204F800283ADEFFFD04DFC00215DF000115DF000104E13FFF1503
:2008480000240780008000441001703A0001883AE037883ADFC00117DF000017DEC0020479
:20085000F800283ADEFFFE04DFC00115DF000015D839883A01800044000B883A010000B48C
:200858002111F70400223140010000B42111ED0400220D400001883A000D883A000B883A1A
:20086000010000B421160F040022D380010000B42116050400220D400001883AE037883A04
:20086800DFC00117DF000017DEC00204F800283ADEFFFA04DFC00515DF000415DF00040452
:20087000E13FFD15E17FFE15E1BFFF15E0BFFD1710800017E0BFFC15E0BFFC1710C00A0475
:20087800E0BFFD1710800217100F883AE1BFFF17E17FFE171809883A00227E80E037883A1C
:20088000DFC00117DF000017DEC00204F800283ADEFFFA04DFC00515DF000415DF0004043A
:20088800E13FFD15E17FFE15E1BFFF15E0BFFD1710800017E0BFFC15E0BFFC1710C00A045D
:20089000E0BFFD1710800217100F883AE1BFFF17E17FFE171809883A0022A040E037883A22
:20089800DFC00117DF000017DEC00204F800283ADEFFFC04DFC00315DF000215DF00020426
:2008A000E13FFF15E0BFFF1710800017E0BFFE15E0BFFE1710C00A04E0BFFF171080021706
:2008A800100B883A1809883A00226900E037883ADFC00117DF000017DEC00204F800283A61
:2008B000DEFFFA04DFC00515DF000415DF000404E13FFD15E17FFE15E1BFFF15E0BFFD17A9
:2008B80010800017E0BFFC15E0BFFC1710800A04E1BFFF17E17FFE171009883A00226F8062
:2008C000E037883ADFC00117DF000017DEC00204F800283ADEFFFA04DFC00515DF00041508
:2008C800DF000404E13FFD15E17FFE15E1BFFF15E0BFFD1700C0004410C00815E0BFFD1779
:2008D00010800017108001041007883AE0BFFD171080081718800035E0BFFE17E0FFFF171B
:2008D800D8000015E1FFFD17018000B43188F704180B883A1009883A0021C9C0E0BFFD1719
:2008E00010000915E0BFFD1710C00204008000B4109D830410800017E1FFFD17018000B409
:2008E80031897A04100B883A1809883A002352801000040EE0FFFD1700A0003410BFFFC488
:2008F000188001150001883AE037883ADFC00117DF000017DEC00204F800283ADEFFF8041A
:2008F800DF000715DF000704E13FFF15E0BFFF17E0BFFB15E0BFFB1710800017E0BFFC155B
:20090000E0BFFC171080010410800037E0BFFD15E0BFFD171080C00C10006D26E0BFFD17B3
:200908001080400C1000352600800074E0BFF915E0BFFB1710800A17108000441081FFCC55
:20091000E0BFFE15E0BFFB1710C00B17E0BFFE1718801526E0BFFC1710800037E0BFF915C5
:20091800E0BFF91710A0000C10001126E0BFFB1710800A17E0FFF9171809883AE0FFFB17E8
:200920001885883A10800E0411000005E0BFFB1710800A171080004410C1FFCCE0BFFB171D
:2009280010C00A15003FE2060001883A000001060001883AE0BFF91710BFFFEC10000F265E
:20093000E0BFFB1710C0081700BFFF841886703AE0BFFB1710C00815E0BFFC171080010498
:200938001007883AE0BFFB171080081718800035E0BFFC171080010410800037E0BFFD17D8
:200940001080800C103FBE26E0BFFD171004D43AE0BFFA1500001406E0BFFC17E0FFFB1708
:2009480018C00D17E13FFB1720C7883A18C20E0418C0000318C03FCC18C0201C18FFE004FF
:2009500010C00035E0BFFB1710800D171080004410C1FFCCE0BFFB1710C00D15E0BFFA175A
:2009580010BFFFC4E0BFFA15E0BFFA1710000526E0BFFB1710C00D17E0BFFB1710800C174B
:2009600018BFE51EE0BFFA17103F9D26E0BFFB1710C0081700BFFF441886703AE0BFFB1740
:2009680010C00815E0BFFB1710800017108001041007883AE0BFFB1710800817188000358F
:20097000E0BFFC171080010410800037003F8C060001883A0001883AE037883ADF00001733
:20097800DEC00104F800283ADEFFF804DF000715DF000704E13FFB15E0BFFB17E0BFF91516
:20098000E0BFF917108000171080010410800037E0BFFA15E0BFFA171081000C10000B2669
:20098800E0BFF91710800017108001041007883AE0BFF917108008171081001418800035BB
:20099000E0BFF9171000091500000A06E0BFF91710C0091700A0003410BFFF0410C005360A
:20099800E0BFF9171080091710C00044E0BFF91710C00915008000B4109D83041080001720
:2009A000E037883ADF000017DEC00104F800283ADEFFFD04DF000215DF000204E13FFE157F
:2009A800E17FFF1500000506E0BFFF171090000C1000022600BFFD4400000B06E0BFFE1752
:2009B00010C00D17E0BFFE1710800C1718800526E0BFFE1710C00917E0BFFE171080011709
:2009B80018BFF1360005883AE037883ADF000017DEC00104F800283ADEFFFA04DF000515BA
:2009C000DF000504E13FFD15E17FFE15E1BFFF1500BFF9C4E0BFFB15E0BFFE1710DA80602D
:2009C8001800031E109A80A01000181E00002906E0BFFD1710C0011700A0003410BFFFC496
:2009D00018802126E0BFFF1710800017E0BFFC15E0BFFC17108000901000061EE0FFFC1724
:2009D80000A0003410BFFFC418800226E0BFFC170000020600A0003410BFFF84E0FFFD1706
:2009E00018800115E03FFB1500000F06E0BFFD1710C0011700A0003410BFFFC418800C263A
:2009E800E0BFFD1710C00917E0BFFD17108001171885803A10C03FCCE0BFFF1710C0001525
:2009F000E03FFB15000002060001883A000001060001883AE0BFFB17E037883ADF000017A3
:2009F800DEC00104F800283ADEFFF304DFC00C15DF000B15DF000B04E13FFC15E17FFD15BE
:200A0000E1BFFE15E1FFFF15E0BFFD17E0BFF51500004706E0BFFC1710800A17E0BFF71578
:200A0800E0BFFC1710800B17E0BFF815E0FFF717E0BFF81718800536E0FFF717E0BFF817B5
:200A10001885C83AE0BFF6150000040600C20004E0BFF8171885C83AE0BFF615E0BFF6170A
:200A180010001E26E0FFFE17E0BFF6171880022EE0BFFE17E0BFF615E0BFFC1710C00E0410
:200A2000E0BFF8171885883AE1BFF617100B883AE13FF5170021B540E0FFF517E0BFF61746
:200A28001885883AE0BFF515E0FFFE17E0BFF6171885C83AE0BFFE15E0FFF817E0BFF6171B
:200A30001885883A10C1FFCCE0BFFC1710C00B15E0BFFE1700BFCF16000001060001883AE7
:200A3800E0FFF517E0BFFD171880141EE0BFFF171090000C1000131E0001883AE0BFFC171F
:200A400010C00A17E0BFF7171880051EE0BFFC1710C00917E0BFFC171080011718BFF7363D
:200A4800E0BFFC1710C00A17E0BFF71718800726E0BFFE1700BFB716000005060001883A6B
:200A5000000003060001883A000001060001883AE0FFF517E0BFFD17188018260005303A0D
:200A5800E0BFFB15E0FFFB1700BFFF841884703A1001703AE0BFFB17E0BFFA15E0BFFC178A
:200A60001080081710C00054E0BFFC1710C00815E0BFFC1710800017108001041007883A3D
:200A6800E0BFFC171080081718800035E0BFFA17E0BFF915E0BFF9171001703AE0FFF5178E
:200A7000E0BFFD1718800426E0FFF517E0BFFD171885C83A00000606E0BFFF171090000C47
:200A78001000022600BFFD440000010600BFFEC4E037883ADFC00117DF000017DEC0020474
:200A8000F800283ADEFFF304DFC00C15DF000B15DF000B04E13FFC15E17FFD15E1BFFE1525
:200A8800E1FFFF15E03FF515E0BFFD17E0BFF71500003706E0BFFC1710800C17E0BFF91584
:200A9000E0BFFC1710800D17E0BFF515E0FFF917E0BFF5171880062EE0FFF517E0BFF91737
:200A98001885C83A10BFFFC4E0BFF61500000B06E0BFF5171000052600C20004E0BFF917F7
:200AA0001885C83AE0BFF6150000040600C1FFC4E0BFF9171885C83AE0BFF615E0BFF617BB
:200AA80010001E26E0FFFE17E0BFF6171880022EE0BFFE17E0BFF615E0BFFC1710C20E047E
:200AB000E0BFF9171885883AE1BFF617E17FFD171009883A0021B540E0FFFD17E0BFF61767
:200AB8001885883AE0BFFD15E0FFFE17E0BFF6171885C83AE0BFFE15E0FFF917E0BFF61782
:200AC0001885883A10C1FFCCE0BFFC1710C00C15E0BFFE1700BFC716000001060001883A5E
:200AC8000005303AE0BFFB15E0FFFB1700BFFF841884703A1001703AE0BFFB17E0BFFA155D
:200AD000E0BFFC171080081710C00094E0BFFC1710C00815E0BFFC171080001710800104B4
:200AD8001007883AE0BFFC171080081718800035E0BFFA17E0BFF815E0BFF8171001703A32
:200AE000E0BFFE170080100EE0BFFF171090000C1000101E0001883AE0BFFC1710C00D179C
:200AE800E0BFF5171880051EE0BFFC1710C00917E0BFFC171080011718BFF736E0BFFC17D6
:200AF000108009171000051EE0BFFE1700BFD016000003060001883A000001060001883A14
:200AF800E0FFFD17E0BFF71718800426E0FFFD17E0BFF7171885C83A00000606E0BFFF177C
:200B00001090000C1000022600BFFD440000010600BFFEC4E037883ADFC00117DF000017E3
:200B0800DEC00204F800283ADEFFFA04DFC00515DF000415DF000404E13FFD15E17FFE15B7
:200B1000E1BFFF15E0BFFD1710800017E0BFFC15E0BFFC1710C00A04E0BFFD17108002171B
:200B1800100F883AE1BFFF17E17FFE171809883A00231500E037883ADFC00117DF00001710
:200B2000DEC00204F800283ADEFFFA04DFC00515DF000415DF000404E13FFD15E17FFE159F
:200B2800E1BFFF15E0BFFD1710800017E0BFFC15E0BFFC1710C00A04E0BFFD171080021703
:200B3000100F883AE1BFFF17E17FFE171809883A002337C0E037883ADFC00117DF00001716
:200B3800DEC00204F800283ADEFFFC04DFC00315DF000215DF000204E13FFF15E0BFFF1747
:200B400010800017E0BFFE15E0BFFE1710C00A04E0BFFF1710800217100B883A1809883A8C
:200B480000230AC0E037883ADFC00117DF000017DEC00204F800283ADEFFF804DFC0071588
:200B5000DF000615DF000604E13FFD15E17FFE15E1BFFF15E0BFFD1710800017E0BFFB1540
:200B58000005883A1000041E0005883A1000021E0005883A100002260080004400000106C3
:200B60000005883AE0BFFC15E0BFFC1710000F1EE0BFFD1700C3200410C00115E0BFFB17DE
:200B680010800304E0FFFD1718C0011710C00035D8000015E1FFFD17018000B4318B79049F
:200B7000E17FFF17E13FFE170021C9C00001883AE037883ADFC00117DF000017DEC0020423
:200B7800F800283ADEFFFA04DFC00515DF000415DF000404E13FFF15E0BFFF17E0BFFC15F7
:200B8000E0BFFC1710800017E0BFFD15E0BFFD171080020410800037E0BFFE15E0BFFD17D6
:200B8800108002040007883A10C00035E0BFFD171080020410800037E0BFFE171080200C69
:200B900010000326E17FFE17E13FFC170022E800E0BFFE171081100C10000326E17FFE174B
:200B9800E13FFC170022F6400001883AE037883ADFC00117DF000017DEC00204F800283A6B
:200BA000DEFFFC04DF000315DF000304E13FFE15E17FFF15E0BFFF17108000CC10002C1E69
:200BA800E0BFFE1710800317E0BFFE1710800217E0BFFE17108003171080004410800FCCD5
:200BB000E0BFFD15E0BFFE1710800317E0FFFE1718C0001718C000371809883AE0FFFE174D
:200BB8001885883A1080070411000005E0BFFE17E0FFFD1710C00315E0BFFE171080031720
:200BC0001080004410800FCCE0BFFD15E0BFFE1710C00217E0BFFD1718800E1EE0BFFE175D
:200BC80010C0011700BFDFC41886703AE0BFFE1710C00115E0BFFE171080001710800304EF
:200BD000E0FFFE1718C0011710C00035000001060001883AE037883ADF000017DEC00104E0
:200BD800F800283ADEFFFB04DF000415DF000404E13FFC15E17FFD15E0BFFC1710C00417A8
:200BE000E0BFFC171080051718803226E0BFFC17108006171080008C10000326E0BFFD1740
:200BE8001082000C10001D26E0BFFC1710800417E0BFFC1710800517E0BFFC1710800017E8
:200BF00010800104E0FFFC1718C00417E13FFC1720C7883A18C0170418C0000318C03FCCDE
:200BF80010C00035E0BFFC171080041710800044E0FFFC171880041510C00FCCE0BFFC17A7
:200C000010C00415E0BFFC171080011710C01014E0BFFC1710C0011500000E06E0BFFC173F
:200C0800108000171080020410800037E0BFFD15E0BFFD171082000C1000061EE0BFFC17E0
:200C100010C0011700BFEFC41886703AE0BFFC1710C00115E0BFFC1710C00417E0BFFC173B
:200C1800108005171880061EE0BFFC1710C0011700BEEFC41886703AE0BFFC1710C0011569
:200C2000E0BFFC171080001710800304E0FFFC1718C0011710C000350001883AE037883A41
:200C2800DF000017DEC00104F800283ADEFFFD04DF000215DF000204E13FFE15E17FFF1559
:200C300000000506E0BFFF171090000C1000022600BFFD4400000606E0BFFE1710C0041755
:200C3800E0BFFE171080051718BFF61E0005883AE037883ADF000017DEC00104F800283ABE
:200C4000DEFFFE04DFC00115DF000015D839883A008000B41097AF041080001710000526C9
:200C4800008000B41097AF0410800017103EE83A00000206008000B4109D8504E037883A9C
:200C5000DFC00117DF000017DEC00204F800283ADEFFF204DFC00D15DF000C15DF000C0456
:200C5800E13FFC15E17FFD15E1BFFE15E1FFFF15E03FF405E03FF515E0BFFF171090000C90
:200C60001005003A10803FCCE0BFF61500001306E0BFF51710800044E0BFF515E0BFFD17EC
:200C680010C00044E0FFFD15E0FFFC1718C00217E13FFC1720C7883A18C0070418C00003EA
:200C700010C00005E0BFFC17108002171080004410C00FCCE0BFFC1710C00215E0FFF51731
:200C7800E0BFFE171880050EE0BFFC1710C00217E0BFFC171080031718BFE51EE0BFF51781
:200C80001000251EE0BFFC1710C00217E0BFFC17108003171880201EE0BFF6171000071E53
:200C8800002310001007883A008002C41880001500800044E0BFF40500001B060005303A61
:200C9000E0BFF915E0FFF91700BFFF841884703A1001703AE0BFF917E0BFF815E0BFFC1758
:200C98001080011710C02014E0BFFC1710C00115E0BFFC171080001710800304E0FFFC1716
:200CA00018C0011710C00035E0BFF817E0BFFA15E0BFFA171001703AE0BFF5171000021E9D
:200CA800E0BFFE17103FCD1E0005303AE0BFFB15E0FFFB1700BFFF841884703A1001703AEC
:200CB000E0BFFB17E0BFF815E0BFFC171080011710C02014E0BFFC1710C00115E0BFFC171F
:200CB8001080001710800304E0FFFC1718C0011710C00035E0BFF817E0BFF715E0BFF717F1
:200CC0001001703AE0BFF4031000022600BFFD4400000106E0BFF517E037883ADFC0011749
:200CC800DF000017DEC00204F800283ADEFFFE04DFC00115DF000015D839883A008000B489
:200CD0001097AF041080001710000526008000B41097AF0410800017103EE83A000002061B
:200CD800008000B4109D8504E037883ADFC00117DF000017DEC00204F800283ADEFFF2043B
:200CE000DFC00D15DF000C15DF000C04E13FFC15E17FFD15E1BFFE15E1FFFF15E0BFFE1746
:200CE800E0BFF415E0BFFF171090000CE0BFF51500003C06E0BFFC171080051710800044C6
:200CF00010800FCCE0BFF715E0BFFC1710C00417E0BFF7171880221EE0BFF51710000526C6
:200CF800002332C01007883A008002C41880001500002E060005303AE0BFF915E0FFF917BC
:200D000000BFFF841884703A1001703AE0BFF917E0BFF815E0BFFC171080011710C11014E6
:200D0800E0BFFC1710C00115E0BFFC171080001710800304E0FFFC1718C0011710C000355C
:200D1000E0BFF817E0BFF615E0BFF6171001703AE0BFFC1710C00417E0BFF71718BFFC26C1
:200D1800E0BFF41710BFFFC4E0BFF415E0BFFC1710C00517E0BFFD1711000044E13FFD15FF
:200D2000108000031009883AE0BFFC1710C5883A1080170411000005E0BFFC17E0FFF7179C
:200D280010C00515E0BFF417103FC21E0005303AE0BFFB15E0FFFB1700BFFF841884703A51
:200D30001001703AE0BFFB17E0BFF815E0BFFC171080011710C11014E0BFFC1710C00115A4
:200D3800E0BFFC171080001710800304E0FFFC1718C0011710C00035E0BFF817E0BFFA1568
:200D4000E0BFFA171001703AE0FFFE17E0BFF4171885C83AE037883ADFC00117DF00001765
:200D4800DEC00204F800283ADEFFF504DF000A15DF000A04E13FFC15E17FFD15E1BFFE1576
:200D5000E1FFFF15E03FF615008000B4109D83041080001710003F26E0BFFC1710003B26BE
:200D5800E0BFFC17E0FFFE1710C00315E0BFFC17E0FFFF1710C005150005303AE0BFF91540
:200D6000E0FFF91700BFFF841884703A1001703AE0BFF917E0BFF815008000B4109D84047D
:200D680010800017E0BFF615E0FFFD17E0BFF6171885883A10C00044E0BFFC1710C002156F
:200D7000E0BFFC1710C00217E0BFF6171880042EE0BFFC1700C0004410C0040500000206BB
:200D7800E0BFFC1710000405E0FFFC17008000B41097B004E0BFFA15E0FFFB15E0BFFB17C1
:200D8000E0FFFA1710C00115E0BFFA1710C00017E0BFFB1710C00015E0BFFA1710800017F9
:200D8800E0FFFB1710C00115E0BFFA17E0FFFB1710C00015E0BFF817E0BFF715E0BFF717E8
:200D90001001703A0005883A0000030600BFFA840000010600BFDE84E037883ADF00001784
:200D9800DEC00104F800283ADEFFFE04DFC00115DF000015D839883A008000B41097AF0455
:200DA0001080001710000526008000B41097AF0410800017103EE83A00000206008000B470
:200DA800109D8504E037883ADFC00117DF000017DEC00204F800283ADEFFFB04DFC00415DD
:200DB000DF000315DF000304E13FFF15E0BFFF171000081601400304E13FFF17002470C05D
:200DB8001007883A008000B4109640041885883A000001060005883AE0BFFD15E0BFFD1793
:200DC00010001926E0BFFD17108000171080041710000626E0BFFD1710800017108004177E
:200DC800E13FFD17103EE83A000001060005883AE0BFFE15E13FFF170023E500E0BFFE17F5
:200DD0001000070E002366801007883AE0BFFE170085C83A1880001500BFFFC40000070685
:200DD8000005883A00000506002366801007883A008014441880001500BFFFC4E037883A67
:200DE000DFC00117DF000017DEC00204F800283ADEFFFF04DF000015D839883A0001883ADE
:200DE800E037883ADF000017DEC00104F800283ADEFFFC04DF000315DF000304E13FFD1533
:200DF000E17FFE15E1BFFF15E0BFFF17E037883ADF000017DEC00104F800283ADEFFFE045C
:200DF800DFC00115DF000015D839883A008000B41097AF041080001710000526008000B4BB
:200E00001097AF0410800017103EE83A00000206008000B4109D8504E037883ADFC001175F
:200E0800DF000017DEC00204F800283ADEFFFA04DFC00515DF000415DF000404E13FFE1530
:200E1000E17FFF15E0BFFE1710000326E0BFFE17108002171000061E00237DC01007883A97
:200E1800008005841880001500BFFA8400001306E0BFFE17E0FFFF17E0FFFC15E0BFFD1564
:200E2000E0BFFD17E0FFFC1710C00115E0BFFC1710C00017E0BFFD1710C00015E0BFFC1744
:200E280010800017E0FFFD1710C00115E0BFFC17E0FFFD1710C000150005883AE037883A00
:200E3000DFC00117DF000017DEC00204F800283ADEFFFD04DFC00215DF000115DF0001048A
:200E3800008000B41091D904E0BFFF1500000606E0BFFF1710800017103EE83AE0BFFF17A8
:200E400010BFFF04E0BFFF15E0FFFF17008000B41091DA0418BFF62E0001883AE037883ACE
:200E4800DFC00117DF000017DEC00204F800283ADEFFFD04DFC00215DF000115DF00010472
:200E5000008000B41091D904E0BFFF1500000606E0BFFF1710800017103EE83AE0BFFF1790
:200E580010BFFF04E0BFFF15E0FFFF17008000B41091DA0418BFF62E0001883AE037883AB6
:200E6000DFC00117DF000017DEC00204F800283ADEFFFF04DF000015D839883A0001883A5D
:200E6800E037883ADF000017DEC00104F800283ADEFFFE04DF000115DF000104E13FFF15B2
:200E7000E0BFFF1710BFFE8410C0042818001A1E100690BA008000B4108E7A041885883A01
:200E7800108000171000683A00023A2800023A2800023A3800023A3800023A3800023A2879
:200E800000023A3000023A3800023A2800023A2800023A3800023A2800023A3000023A38F2
:200E880000023A3800023A2800800044000003060005883A000001060005883AE037883A37
:200E9000DF000017DEC00104F800283ADEFFF804DFC00715DF000615DC000515DF000604E2
:200E9800E13FFB15E17FFC15E1BFFD15E1FFFE15E1BFFE17E17FFD17E13FFC170023CF00A6
:200EA000E0BFFA15E0BFFA1710002216040000B484164004E0BFFA17014003041009883A23
:200EA800002470C08085883A10C00017E0BFFB1710C00015040000B484164004E0BFFA174C
:200EB000014003041009883A002470C08085883A1080010410C00017E0BFFB1710C00115D1
:200EB800040000B484164004E0BFFA17014003041009883A002470C08085883A1080020400
:200EC00010C00017E0BFFB1710C00215E13FFA170023E5000001883AE6FFFF04DFC00217F7
:200EC800DF000117DC000017DEC00304F800283ADEFFFB04DFC00415DF000315DF000304B0
:200ED000E13FFD15E17FFE15E1BFFF1501C07FC401800044E17FFD17010000B42116430439
:200ED8000023A4C001C07FC4000D883AE17FFE17010000B4211640040023A4C001C07FC470
:200EE00001800044E17FFF17010000B4211646040023A4C00001883AE037883ADFC00117A7
:200EE800DF000017DEC00204F800283ADEFFFE04DFC00115DF000015D839883A008000B467
:200EF0001097AF041080001710000526008000B41097AF0410800017103EE83A00000206F9
:200EF800008000B4109D8504E037883ADFC00117DF000017DEC00204F800283ADEFFFB0410
:200F0000DFC00415DF000315DC000215DF000304E13FFE15E0BFFE171080021710D00034A5
:200F0800E0BFFE1710C00215E03FFD1500002306040000B484164004E0BFFD170140030443
:200F10001009883A002470C08085883A10C00017E0BFFE17108000171880151E040000B406
:200F180084164004E0BFFD17014003041009883A002470C08085883A1080020410800017AD
:200F200010000B0E01400304E13FFD17002470C01007883A008000B4109640041887883A60
:200F2800E0BFFE171880022600BFFCC400000A06E0BFFD1710800044E0BFFD15008000B43A
:200F30001097AE04108000171007883AE0BFFD1718BFD72E0005883AE6FFFF04DFC00217D2
:200F3800DF000117DC000017DEC00304F800283ADEFFF604DFC00915DF000815DF00080435
:200F4000E13FFD15E17FFE15E1BFFF1500BFFFC4E0BFF91500BFFB44E0BFFA15E03FFB152E
:200F4800014000B42957AC04E13FFD17002409C0E0BFF815E0BFF8171000051EE13FFD1782
:200F5000002412C0E0BFF81500800044E0BFFB15E0BFF81710002B26E13FF81700242400E6
:200F5800E0BFF915E0BFF9171000030EE0BFF917E0BFFA150000250601400304E13FF917FC
:200F6000002470C01007883A008000B4109640041885883AE0BFFC15E0FFFE17009000345F
:200F680010BFFFC41886703AE0BFFC1710C00215E0BFFB171000051EE13FFC170023BFC03D
:200F7000E0BFFA15E0BFFA1710001016E0BFF8171080031710000826E0BFF81710800317DF
:200F7800E1FFFF17E1BFFE17E17FFD17E13FFC17103EE83A000001060005883AE0BFFA151B
:200F80000000020600BFFB44E0BFFA15E0BFFA171000090EE13FF9170023E5000023BAC0F1
:200F88001007883AE0BFFA170085C83A1880001500BFFFC400000106E0BFF917E037883A7B
:200F9000DFC00117DF000017DEC00204F800283ADEFFFC04DFC00315DF000215DC0001151A
:200F9800DF000204E13FFE15E0BFFE17108000D01000111E040000B484164004E0BFFE1784
:200FA000014003041009883A002470C08085883A1080020410000015040000B484164004A2
:200FA800E0BFFE17014003041009883A002470C08085883A100000150001883AE6FFFF0467
:200FB000DFC00217DF000117DC000017DEC00304F800283ADEFFFA04DF000515DF000504C4
:200FB800E13FFF150005303AE0BFFC15E0FFFC1700BFFF841884703A1001703AE0BFFC17DF
:200FC000E0BFFB15E0BFFF17E0BFFD15E0BFFD1710800017E0FFFD1718C0011710C00115D9
:200FC800E0BFFD1710800117E0FFFD1718C0001710C00015E0BFFD17E0FFFD1710C001155B
:200FD000E0BFFD17E0FFFD1710C00015E0BFFB17E0BFFE15E0BFFE171001703A0001883AE1
:200FD800E037883ADF000017DEC00104F800283ADEFFFB04DFC00415DF000315DF000304BC
:200FE000D0A00717E0BFFD15D0A5DB1710800044D0A5DB1500002E06E0BFFD171080001784
:200FE800E0BFFE15E0BFFD171080040310803FCC10000426D0A5DB171000021EE0BFFD17CE
:200FF00010000405E0BFFD1710800217D0E5DB1718801D36E0BFFD171080040310803FCCF5
:200FF8001000191EE0BFFD1710800317E0FFFD1718C005171809883A103EE83AE0BFFF1548
:20100000E0BFFF171000031EE13FFD170023ED4000000D06E0BFFD1710C00217E0BFFF1702
:201008001887883AE0BFFD1710C00215E0BFFD1710C00217D0A5DB171880032EE0BFFD174E
:2010100000C0004410C00405E0BFFE17E0BFFD15E0FFFD17D0A0070418BFCF1E0001883A89
:201018000001883AE037883ADFC00117DF000017DEC00204F800283ADEFFFF04DF0000159D
:20102000D839883A000170FA0001883AE037883ADF000017DEC00104F800283ADEFFFA0408
:20102800DFC00515DF000415DF000404E13FFE15E17FFF15E0BFFF1710800017E0BFFC155D
:20103000E13FFE1700243DC010800044E0BFFD1500000D06E0BFFC1710800217E0FFFD1764
:20103800180D883AE17FFE171009883A002436001000021EE0BFFC1700000706E0BFFC1766
:2010400010800017E0BFFC15E0FFFC17E0BFFF1718BFF01E0005883AE037883ADFC0011756
:20104800DF000017DEC00204F800283ADEFFFB04DFC00415DF000315DF000304E13FFF15EF
:20105000008000B41097AA0410800017E0BFFD1500003106E0BFFD17108002171009883A31
:2010580000243DC0E0BFFE15E0BFFD1710C00217E0BFFE1710BFFFC41885883A10800003D1
:2010600010803FCC1080201C10BFE00410800BD81000031EE0BFFE1710BFFFC4E0BFFE15BA
:20106800E0BFFE17E0FFFF171885883A1080000310803FCC1080201C10BFE00410800BE038
:201070001000081EE0BFFE17E0FFFF171885883A1080000310803FCC1080201C10BFE00475
:2010780010000A1EE0BFFD1710800217E0FFFE17180D883AE17FFF171009883A002436003E
:201080001000021EE0BFFD1700000806E0BFFD1710800017E0BFFD15E0FFFD17008000B42D
:201088001097AA0418BFCB1E0005883AE037883ADFC00117DF000017DEC00204F800283AE8
:20109000DEFFFA04DFC00515DF000415DC000315DF000404E13FFE1500BFFA04E0BFFD1538
:20109800E03FFC1500002106040000B484164004E0BFFC17014003041009883A002470C022
:2010A0008085883A108000171000151E040000B484164004E0BFFC17014003041009883A14
:2010A800002470C08085883AE0FFFE1710C00015008000B41097AE0410C00017E0BFFC170E
:2010B0001880040E008000B41097AE04E0FFFC1710C00015E0BFFC17E0BFFD1500000606A3
:2010B800E0BFFC1710800044E0BFFC15E0BFFC1710800810103FDC1EE0BFFD17E6FFFF04A4
:2010C000DFC00217DF000117DC000017DEC00304F800283A200B883A000F883A000D883AE2
:2010C8000009883A00244741DEFFFE04000B883ADC000015DFC001152021883A002458C000
:2010D000008000B41097B2041100001720800F1710000126103EE83A8009883A00247340B8
:2010D80001C000C43980192E2144B03A11C4703A10000F262080000328C0000310C0151ECF
:2010E00031BFFF8401FFFFC4000004062080000328C0000331BFFFC410C00E1E210000440E
:2010E8002940004431FFF91E0005883AF800283A20C000172880001718BFEE1E31BFFF0447
:2010F000210001042940010439BFF936303FE91E003FF50610C5C83AF800283A208000CCD8
:2010F8001000202620800007100020262005883A0000020610C00007180018261080004495
:2011000010C000CC183FFB1E10C0001701FFBFF439FFBFC400CA303A01A0207419C7883A63
:2011080031A020041946703A1986703A1800091E1080010410C0001719CB883A00C6303AEF
:2011100028C6703A1986703A183FF926000001061080004410C00007183FFD1E1105C83A2C
:20111800F800283A2005883A003FE7060005883AF800283ADEFFFA04DC000315040000B4A2
:201120008417B20480C00017DC400415DFC00515188052172023883A1000372610C00117BE
:20112800010007C420C00E161A0000448800221E18C0008418C7883A18C7883A12000115EB
:2011300010C7883A194000150005883ADFC00517DC400417DC000317DEC00604F800283AE7
:2011380000800034108000041000262601006404D9400015D9800115D9C00215000000003D
:20114000D9400017D9800117D9C0021710001D26810000171000011502000044224052171A
:201148000007883A12400015208052151000621510006315883FDE2618C9883A2109883AE7
:201150001109883A21802215018000441240621730CC983A4992B03A1240621521C04215A7
:2011580001000084893FD21E11006317218CB03A11806315003FCE0618805304188052150E
:20116000003FC60600BFFFC4003FD006DEFFF504DF000915DD400615DC800315DFC00A1590
:20116800DDC00815DD800715DD000515DCC00415DC400215DC000115D90000152839883A52
:2011700004800044057FFFC4008000B41097B204120000174500521744C05204A0001C26AC
:20117800A080011715FFFFC4B8000D16140000448421883A8421883A84402004A463883A96
:20118000A421883AE0001E2680804017E0801C26BDFFFFC4843FFF048C7FFF04BD7FF91E05
:20118800008000341080000410000926A08001171000301EA080001710003226A009883A20
:2011900098800015000000009D000017A03FE41EDFC00A17DF000917DDC00817DD80071787
:20119800DD400617DD000517DCC00417DC800317DC400217DC000117DEC00B04F800283AA7
:2011A000A080011780C0001710BFFFC415C0142680000015183FDE2695C8983AA080621747
:2011A800A58001172084703A10000B26A08063172088703A20000C1E89400017D900001755
:2011B000183EE83AA080011715BFBF1E98800017153FCF26003FBC06183EE83A003FF9068F
:2011B800A5C00115003FEB0689000017183EE83A003FF406A0800017A027883A1029883A60
:2011C000003FB6060005883A003FFB060005883A2000072620C0004C2008D07A180001261C
:2011C8001145883A294B883A203FFA1EF800283AF800283ADEFFFD04DF000215DF000204D5
:2011D000E13FFF150001883AE0BFFF17E0BFFE15E0BFFE1710000226002AF0700000010624
:2011D800002AF0B0003FFF067665642F7875612F6461725F305F6F6961746A5F00000067FC
:2011E0007665642F7875612F6461725F305F6F6961746A5F000000677665642F7261752F1D
:2011E80000305F747665642F6C756E2F0000006C0000004300000000000000000000000049
:2011F0000000000000000000000000000000000000000000000000000000000000000000DF
:2011F8000000000000000000000000000000000000000000000000000000000000000000D7
:201200000000000000000000000000000000000000000000000000000000000000000000CE
:201208000000000000000000000000000000000000000000000000000000000000000000C6
:2017B000000000000000000000000000000000000000000000000000000247800000000050
:2017B80000022270000221B0000222100000000000000000000222C0000414300000000A40
:2017C000000000000000000000000000000000000000000000000000000000000000000009
:2017C800000000000000000000000000000000000000000000000000000000000000000001
:2017D0000000000000000000000000000000000000000000000000000000000000000000F9
:2017D8000000000000000000000000000000000000000000000000000000000000000000F1
:201BC80000000000000000000000000000000000000000000000000000024798000000001C
:201BD00000022CE800022C2800022C880000000000000000000000000000140000000000BF
:201BD8000000000000000000000000000000000000000000000000000000000000000000ED
:201BE0000000000000000000000000000000000000000000000000000000000000000000E5
:201BE8000000000000000000000000000000000000000000000000000000000000000000DD
:201BF0000000000000000000000000000000000000000000000000000000000000000000D5
:201BF800000000000000000000000000000000000000000000025EB000025EB0000247A4C0
:201C0000000000000000000000000000000237B0000000000000000000000000000258D8A9
:201C08000000000000000000000258D80000000000000000000258D8000000000000000058
:201C10000000000000000000000000000000000000000000000000000000000000000000B4
:201C18000000000000000000000000000000000000000000000000000000000000000000AC
:201C20000000000000000000000000000000000000000000000000000000000000000000A4
:201C280000000000000000000000000000000000000000000000000000000000000000009C
:201C3000000000000000000000000000000000000000000000000000000000000000000094
:201C380000000000000000000000000000000000000000000000000000000000000000008C
:201C4000000000000000000000000000000000000000000000000000000000000000000084
:201C480000000000000000000000000000000000000000000000000000000000000000007C
:201C5000000000000000000000000000000000000000000000000000000000000000000074
:201C580000000000000000000000000000000000000000000000000000000000000000006C
:201C6000000000000000000000000000000000000000000000000000000000000000000064
:201C680000025D6C00025DD400025E3C0000000000000000000000000000000000000000C2
:201C700000000000000000000000000000000000000247B00000000000000000000000005B
:201C780000000000000000000000000000000000000000000000000000000000000000004C
:201C8000000000000000000000000000000000000000000000000000000000000000000044
:201C880000000000000000000000000000000000000000000000000000000000000000003C
:201C90000000000100000000ABCD330EE66D12340005DEEC0000000B000000000000000007
:201C980000000000000000000000000000000000000000000000000000000000000000002C
:201CA000000000000000000000000000000000000000000000000000000000000000000024
:201CA80000000000000000000000000000000000000000000000000000000000000000001C
:201CB000000000000000000000000000000000000000000000000000000000000000000014
:201CB80000000000000000000000000000000000000000000000000000000000000000000C
:201CC000000000000000000000000000000000000000000000000000000000000000000004
:201CC8000000000000000000000000000000000000000000000000000000000000000000FC
:201CD0000000000000000000000000000000000000000000000000000000000000000000F4
:201CD8000000000000000000000000000000000000000000000000000000000000000000EC
:201CE0000000000000000000000000000000000000000000000000000000000000000000E4
:201CE8000000000000000000000000000000000000000000000000000000000000000000DC
:201CF0000000000000000000000000000000000000000000000000000000000000000000D4
:201CF8000000000000000000000000000000000000000000000000000000000000000000CC
:201D00000000000000000000000000000000000000000000000000000000000000000000C3
:201D08000000000000000000000000000000000000000000000000000000000000000000BB
:201D10000000000000000000000000000000000000000000000000000000000000000000B3
:201D18000000000000000000000000000000000000000000000000000000000000000000AB
:201D20000000000000000000000000000000000000000000000000000000000000000000A3
:201D280000000000000000000000000000000000000000000000000000000000000000009B
:201D3000000000000000000000000000000000000000000000000000000000000000000093
:201D380000000000000000000000000000000000000000000000000000000000000000008B
:201D4000000000000000000000000000000000000000000000000000000000000000000083
:201D480000000000000000000000000000000000000000000000000000000000000000007B
:201D5000000000000000000000000000000000000000000000000000000000000000000073
:201D580000000000000000000000000000000000000000000000000000000000000000006B
:201D6000000000000000000000000000000000000000000000000000000000000000000063
:201D680000000000000000000000000000000000000000000000000000000000000000005B
:201D7000FFFFFFFF00025EA800025EA8000258D8000258D8FFFFFFFF0000000000025EC0C7
:201D780000025EC000025A8000025A80000000000000000000000000000000000000000073
:201D8000000000000000000000000000000000000000000000000000000000000000000043
:201D880000000000000000000000000000000000000000000000000000000000000000003B
:201D9000000000000000000000000000000000000000000000000000000000000000000033
:201D980000000000000000000000000000000000000000000000000000000000000000002B
:00000001FF
